{
  "_format": "hh-sol-artifact-1",
  "contractName": "Marketplace",
  "sourceName": "src/backend/contracts/Marketplace.sol",
  "abi": [
    {
      "inputs": [
        {
          "internalType": "uint256",
          "name": "_percent",
          "type": "uint256"
        }
      ],
      "stateMutability": "nonpayable",
      "type": "constructor"
    },
    {
      "anonymous": false,
      "inputs": [
        {
          "indexed": false,
          "internalType": "uint256",
          "name": "itemId",
          "type": "uint256"
        },
        {
          "indexed": true,
          "internalType": "address",
          "name": "nft",
          "type": "address"
        },
        {
          "indexed": false,
          "internalType": "uint256",
          "name": "tokenId",
          "type": "uint256"
        },
        {
          "indexed": false,
          "internalType": "uint256",
          "name": "price",
          "type": "uint256"
        },
        {
          "indexed": true,
          "internalType": "address",
          "name": "seller",
          "type": "address"
        }
      ],
      "name": "Offered",
      "type": "event"
    },
    {
      "anonymous": false,
      "inputs": [
        {
          "indexed": false,
          "internalType": "uint256",
          "name": "itemId",
          "type": "uint256"
        },
        {
          "indexed": true,
          "internalType": "address",
          "name": "buyer",
          "type": "address"
        },
        {
          "indexed": true,
          "internalType": "address",
          "name": "seller",
          "type": "address"
        },
        {
          "indexed": false,
          "internalType": "uint256",
          "name": "price",
          "type": "uint256"
        },
        {
          "indexed": true,
          "internalType": "uint256",
          "name": "itemToken",
          "type": "uint256"
        }
      ],
      "name": "Purchase",
      "type": "event"
    },
    {
      "inputs": [],
      "name": "_feeAccount",
      "outputs": [
        {
          "internalType": "address payable",
          "name": "",
          "type": "address"
        }
      ],
      "stateMutability": "view",
      "type": "function"
    },
    {
      "inputs": [],
      "name": "_feePercent",
      "outputs": [
        {
          "internalType": "uint256",
          "name": "",
          "type": "uint256"
        }
      ],
      "stateMutability": "view",
      "type": "function"
    },
    {
      "inputs": [],
      "name": "_itemCount",
      "outputs": [
        {
          "internalType": "uint256",
          "name": "",
          "type": "uint256"
        }
      ],
      "stateMutability": "view",
      "type": "function"
    },
    {
      "inputs": [
        {
          "internalType": "uint256",
          "name": "",
          "type": "uint256"
        }
      ],
      "name": "_items",
      "outputs": [
        {
          "internalType": "uint256",
          "name": "_itemId",
          "type": "uint256"
        },
        {
          "internalType": "contract IERC721",
          "name": "_nft",
          "type": "address"
        },
        {
          "internalType": "uint256",
          "name": "_tokenId",
          "type": "uint256"
        },
        {
          "internalType": "uint256",
          "name": "_price",
          "type": "uint256"
        },
        {
          "internalType": "address payable",
          "name": "_seller",
          "type": "address"
        },
        {
          "internalType": "bool",
          "name": "_isSold",
          "type": "bool"
        }
      ],
      "stateMutability": "view",
      "type": "function"
    },
    {
      "inputs": [
        {
          "internalType": "uint256",
          "name": "itemId",
          "type": "uint256"
        }
      ],
      "name": "getPrice",
      "outputs": [
        {
          "internalType": "uint256",
          "name": "",
          "type": "uint256"
        }
      ],
      "stateMutability": "view",
      "type": "function"
    },
    {
      "inputs": [
        {
          "internalType": "contract IERC721",
          "name": "nft",
          "type": "address"
        },
        {
          "internalType": "uint256",
          "name": "tokenId",
          "type": "uint256"
        },
        {
          "internalType": "uint256",
          "name": "price",
          "type": "uint256"
        }
      ],
      "name": "makeItem",
      "outputs": [],
      "stateMutability": "nonpayable",
      "type": "function"
    },
    {
      "inputs": [
        {
          "internalType": "uint256",
          "name": "_itemId",
          "type": "uint256"
        }
      ],
      "name": "purchaseItem",
      "outputs": [],
      "stateMutability": "payable",
      "type": "function"
    }
  ],
  "bytecode": "0x60c060405234801561001057600080fd5b5060405161105838038061105883398181016040528101906100329190610094565b60016000819055503373ffffffffffffffffffffffffffffffffffffffff1660808173ffffffffffffffffffffffffffffffffffffffff1660601b815250508060a08181525050506100de565b60008151905061008e816100c7565b92915050565b6000602082840312156100a657600080fd5b60006100b48482850161007f565b91505092915050565b6000819050919050565b6100d0816100bd565b81146100db57600080fd5b50565b60805160601c60a051610f4b61010d6000396000818161024501526105ae015260006102690152610f4b6000f3fe6080604052600436106100705760003560e01c8063d02da0cf1161004e578063d02da0cf1461010d578063d38ea5bf14610138578063e757223014610154578063fa00afc71461019157610070565b8063440294101461007557806369222948146100b7578063ca62a099146100e2575b600080fd5b34801561008157600080fd5b5061009c60048036038101906100979190610956565b6101ba565b6040516100ae96959493929190610b86565b60405180910390f35b3480156100c357600080fd5b506100cc610243565b6040516100d99190610b6b565b60405180910390f35b3480156100ee57600080fd5b506100f7610267565b6040516101049190610a79565b60405180910390f35b34801561011957600080fd5b5061012261028b565b60405161012f9190610b6b565b60405180910390f35b610152600480360381019061014d9190610956565b610291565b005b34801561016057600080fd5b5061017b60048036038101906101769190610956565b6105a8565b6040516101889190610b6b565b60405180910390f35b34801561019d57600080fd5b506101b860048036038101906101b39190610907565b61060b565b005b60026020528060005260406000206000915090508060000154908060010160009054906101000a900473ffffffffffffffffffffffffffffffffffffffff16908060020154908060030154908060040160009054906101000a900473ffffffffffffffffffffffffffffffffffffffff16908060040160149054906101000a900460ff16905086565b7f000000000000000000000000000000000000000000000000000000000000000081565b7f000000000000000000000000000000000000000000000000000000000000000081565b60015481565b600260005414156102d7576040517f08c379a00000000000000000000000000000000000000000000000000000000081526004016102ce90610b2b565b60405180910390fd5b600260008190555060006102ea826105a8565b9050600060026000848152602001908152602001600020905060008311801561031557506001548311155b610354576040517f08c379a000000000000000000000000000000000000000000000000000000000815260040161034b90610aeb565b60405180910390fd5b813414610396576040517f08c379a000000000000000000000000000000000000000000000000000000000815260040161038d90610acb565b60405180910390fd5b8060040160149054906101000a900460ff16156103e8576040517f08c379a00000000000000000000000000000000000000000000000000000000081526004016103df90610b4b565b60405180910390fd5b8060040160009054906101000a900473ffffffffffffffffffffffffffffffffffffffff1673ffffffffffffffffffffffffffffffffffffffff166108fc82600301549081150290604051600060405180830381858888f19350505050158015610456573d6000803e3d6000fd5b5060018160040160146101000a81548160ff0219169083151502179055508060010160009054906101000a900473ffffffffffffffffffffffffffffffffffffffff1673ffffffffffffffffffffffffffffffffffffffff166323b872dd303384600201546040518463ffffffff1660e01b81526004016104d993929190610a94565b600060405180830381600087803b1580156104f357600080fd5b505af1158015610507573d6000803e3d6000fd5b5050505080600201548160040160009054906101000a900473ffffffffffffffffffffffffffffffffffffffff1673ffffffffffffffffffffffffffffffffffffffff163373ffffffffffffffffffffffffffffffffffffffff167f13b8657d4ddfa4b81968610296805d8992e82313cd1a08959a3208cc3da3fed08686604051610593929190610be7565b60405180910390a45050600160008190555050565b600060647f000000000000000000000000000000000000000000000000000000000000000060646105d99190610c89565b60026000858152602001908152602001600020600301546105fa9190610c89565b6106049190610c58565b9050919050565b60026000541415610651576040517f08c379a000000000000000000000000000000000000000000000000000000000815260040161064890610b2b565b60405180910390fd5b60026000819055506000811161069c576040517f08c379a000000000000000000000000000000000000000000000000000000000815260040161069390610b0b565b60405180910390fd5b600160008154809291906106af90610d73565b91905055508273ffffffffffffffffffffffffffffffffffffffff166323b872dd3330856040518463ffffffff1660e01b81526004016106f193929190610a94565b600060405180830381600087803b15801561070b57600080fd5b505af115801561071f573d6000803e3d6000fd5b505050506040518060c0016040528060015481526020018473ffffffffffffffffffffffffffffffffffffffff1681526020018381526020018281526020013373ffffffffffffffffffffffffffffffffffffffff168152602001600015158152506002600060015481526020019081526020016000206000820151816000015560208201518160010160006101000a81548173ffffffffffffffffffffffffffffffffffffffff021916908373ffffffffffffffffffffffffffffffffffffffff160217905550604082015181600201556060820151816003015560808201518160040160006101000a81548173ffffffffffffffffffffffffffffffffffffffff021916908373ffffffffffffffffffffffffffffffffffffffff16021790555060a08201518160040160146101000a81548160ff0219169083151502179055509050503373ffffffffffffffffffffffffffffffffffffffff168373ffffffffffffffffffffffffffffffffffffffff167f655a0cf9c8db81512be9a76dc1c5ae5380b8816ce6ad659cd61b715e2999d59a60015485856040516108c893929190610c10565b60405180910390a36001600081905550505050565b6000813590506108ec81610ee7565b92915050565b60008135905061090181610efe565b92915050565b60008060006060848603121561091c57600080fd5b600061092a868287016108dd565b935050602061093b868287016108f2565b925050604061094c868287016108f2565b9150509250925092565b60006020828403121561096857600080fd5b6000610976848285016108f2565b91505092915050565b61098881610cf5565b82525050565b61099781610ce3565b82525050565b6109a681610d07565b82525050565b6109b581610d4f565b82525050565b60006109c8601f83610c47565b91506109d382610e1a565b602082019050919050565b60006109eb600e83610c47565b91506109f682610e43565b602082019050919050565b6000610a0e602083610c47565b9150610a1982610e6c565b602082019050919050565b6000610a31601f83610c47565b9150610a3c82610e95565b602082019050919050565b6000610a54601183610c47565b9150610a5f82610ebe565b602082019050919050565b610a7381610d45565b82525050565b6000602082019050610a8e600083018461097f565b92915050565b6000606082019050610aa9600083018661098e565b610ab6602083018561098e565b610ac36040830184610a6a565b949350505050565b60006020820190508181036000830152610ae4816109bb565b9050919050565b60006020820190508181036000830152610b04816109de565b9050919050565b60006020820190508181036000830152610b2481610a01565b9050919050565b60006020820190508181036000830152610b4481610a24565b9050919050565b60006020820190508181036000830152610b6481610a47565b9050919050565b6000602082019050610b806000830184610a6a565b92915050565b600060c082019050610b9b6000830189610a6a565b610ba860208301886109ac565b610bb56040830187610a6a565b610bc26060830186610a6a565b610bcf608083018561097f565b610bdc60a083018461099d565b979650505050505050565b6000604082019050610bfc6000830185610a6a565b610c096020830184610a6a565b9392505050565b6000606082019050610c256000830186610a6a565b610c326020830185610a6a565b610c3f6040830184610a6a565b949350505050565b600082825260208201905092915050565b6000610c6382610d45565b9150610c6e83610d45565b925082610c7e57610c7d610deb565b5b828204905092915050565b6000610c9482610d45565b9150610c9f83610d45565b9250817fffffffffffffffffffffffffffffffffffffffffffffffffffffffffffffffff0483118215151615610cd857610cd7610dbc565b5b828202905092915050565b6000610cee82610d25565b9050919050565b6000610d0082610d25565b9050919050565b60008115159050919050565b6000610d1e82610ce3565b9050919050565b600073ffffffffffffffffffffffffffffffffffffffff82169050919050565b6000819050919050565b6000610d5a82610d61565b9050919050565b6000610d6c82610d25565b9050919050565b6000610d7e82610d45565b91507fffffffffffffffffffffffffffffffffffffffffffffffffffffffffffffffff821415610db157610db0610dbc565b5b600182019050919050565b7f4e487b7100000000000000000000000000000000000000000000000000000000600052601160045260246000fd5b7f4e487b7100000000000000000000000000000000000000000000000000000000600052601260045260246000fd5b7f4e6f7420656e6f7567682045746820746f207075726368617365206974656d00600082015250565b7f4974656d206e6f7420666f756e64000000000000000000000000000000000000600082015250565b7f5072696365206d7573742062652067726561746572207468616e207a65726f2e600082015250565b7f5265656e7472616e637947756172643a207265656e7472616e742063616c6c00600082015250565b7f4974656d20616c726561647920736f6c64000000000000000000000000000000600082015250565b610ef081610d13565b8114610efb57600080fd5b50565b610f0781610d45565b8114610f1257600080fd5b5056fea2646970667358221220200bf0361eb1f227f7a7c9387298fdf0fe474a71748d4da4170871f98a3ce22064736f6c63430008040033",
  "linkReferences": {},
  "deployedLinkReferences": {}
}